:10000000740E71B971A3740171B971A3740671B9D9
:0B00100071A3743871B971A302004B9A
:10004B00759E83759D2D75985275EFCC75D8007183
:10005B00ACD2DC30DFFD740171B971A374411203B2
:10006B00C61203A374441203C61203A374431203F0
:10007B00C61203A3743A1203C61203A3E5DAC0E057
:10008B0071DDE5D971DD7A03D0E0146023DAFB7AF8
:10009B0003146019DAFB7A0314600FDAFB7A03148A
:1000AB006005DAFB0200BE02014B0201DC02026FAB
:1000BB0002030474C071B971A3C2B7C2B6C2B5C290
:1000CB00B4C2B3C2B2D2B7744E1203C61203A37436
:1000DB00451203C61203A3744D1203C61203A37475
:1000EB004F1203C61203A374521203C61203A37456
:1000FB00411203C61203A3744E1203C61203A37458
:10010B00491203C61203A3743A1203C61203A37453
:10011B00BD1203C61203A374301203C61203A374D9
:10012B002D1203C61203A374321203C61203A37457
:10013B00301203C61203A371AC71AC71ACC3015A7C
:10014B0074C071B971A3C2B7C2B6C2B5C2B4C2B3DF
:10015B00C2B2D2B7D2B6744E1203C61203A3744501
:10016B001203C61203A3744D1203C61203A3744FDA
:10017B001203C61203A374521203C61203A37441D3
:10018B001203C61203A3744E1203C61203A37449BF
:10019B001203C61203A3743A1203C61203A374BD4F
:1001AB001203C61203A374321203C61203A37430D4
:1001BB001203C61203A3742D1203C61203A37434C5
:1001CB001203C61203A374301203C61203A3C30196
:1001DB005A74C071B971A3C2B7C2B6C2B5C2B4C2A8
:1001EB00B3C2B2D2B7D2B6D2B5744E1203C6120393
:1001FB00A374451203C61203A3744D1203C6120354
:10020B00A3744F1203C61203A374521203C6120334
:10021B00A374411203C61203A3744E1203C6120336
:10022B00A374491203C61203A3743A1203C6120332
:10023B00A374BD1203C61203A374341203C61203B4
:10024B00A374301203C61203A3742D1203C6120338
:10025B00A374361203C61203A374301203C612031F
:10026B00A3C3015A74C071B971A3C2B7C2B6C2B5E8
:10027B00C2B4C2B3C2B2D2B7D2B6D2B5D2B4744E34
:10028B001203C61203A374451203C61203A3744DC3
:10029B001203C61203A3744F1203C61203A37452A4
:1002AB001203C61203A374411203C61203A3744EA6
:1002BB001203C61203A374491203C61203A3743AA2
:1002CB001203C61203A374BD1203C61203A3743622
:1002DB001203C61203A374301203C61203A3742DA8
:1002EB001203C61203A374381203C61203A374308D
:1002FB001203C61203A3C3015A74C071B971A3C20E
:10030B00B7C2B6C2B5C2B4C2B3C2B2D2B7D2B6D2FA
:10031B00B5D2B4D2B3744E1203C61203A3744512F2
:10032B0003C61203A3744D1203C61203A3744F1218
:10033B0003C61203A374521203C61203A374411211
:10034B0003C61203A3744E1203C61203A3744912FD
:10035B0003C61203A3743A1203C61203A374BD128D
:10036B0003C61203A374381203C61203A37430120C
:10037B0003C61203A3742D1203C61203A374311206
:10038B0003C61203A374301203C61203A3743012F4
:10039B0003C61203A3C3015A793C78FFD8FED9FADE
:1003AB00227A32793C78FFD8FED9FADAF622F58038
:1003BB00C2A0C2A1D2A271A3C2A222F580D2A0C2B6
:1003CB00A1D2A271A3C2A222F5993099FDC2997153
:1003DB00C622C0E0C471EF71D3D0E0C0E071EF7101
:1003EB00D3D0E022540FB40A004002240724302259
:00000001FF
